{
  "contractName": "CarContract",
  "abi": [
    {
      "inputs": [
        {
          "internalType": "string",
          "name": "_initialModel",
          "type": "string"
        },
        {
          "internalType": "string",
          "name": "_initialPlate",
          "type": "string"
        },
        {
          "internalType": "string",
          "name": "_initialInsuranceRecord",
          "type": "string"
        },
        {
          "internalType": "string",
          "name": "_initialAccidentRecord",
          "type": "string"
        },
        {
          "internalType": "string",
          "name": "_initialMaintenanceRecord",
          "type": "string"
        },
        {
          "internalType": "string",
          "name": "_initialVIN",
          "type": "string"
        }
      ],
      "stateMutability": "nonpayable",
      "type": "constructor"
    },
    {
      "inputs": [],
      "name": "accidentRecord",
      "outputs": [
        {
          "internalType": "string",
          "name": "",
          "type": "string"
        }
      ],
      "stateMutability": "view",
      "type": "function",
      "constant": true
    },
    {
      "inputs": [],
      "name": "carModel",
      "outputs": [
        {
          "internalType": "string",
          "name": "",
          "type": "string"
        }
      ],
      "stateMutability": "view",
      "type": "function",
      "constant": true
    },
    {
      "inputs": [],
      "name": "carPlate",
      "outputs": [
        {
          "internalType": "string",
          "name": "",
          "type": "string"
        }
      ],
      "stateMutability": "view",
      "type": "function",
      "constant": true
    },
    {
      "inputs": [],
      "name": "insuranceRecord",
      "outputs": [
        {
          "internalType": "string",
          "name": "",
          "type": "string"
        }
      ],
      "stateMutability": "view",
      "type": "function",
      "constant": true
    },
    {
      "inputs": [],
      "name": "maintenanceRecord",
      "outputs": [
        {
          "internalType": "string",
          "name": "",
          "type": "string"
        }
      ],
      "stateMutability": "view",
      "type": "function",
      "constant": true
    },
    {
      "inputs": [],
      "name": "owner",
      "outputs": [
        {
          "internalType": "address",
          "name": "",
          "type": "address"
        }
      ],
      "stateMutability": "view",
      "type": "function",
      "constant": true
    },
    {
      "inputs": [],
      "name": "vehicleIdentificationNumber",
      "outputs": [
        {
          "internalType": "string",
          "name": "",
          "type": "string"
        }
      ],
      "stateMutability": "view",
      "type": "function",
      "constant": true
    },
    {
      "inputs": [
        {
          "internalType": "string",
          "name": "_newModel",
          "type": "string"
        }
      ],
      "name": "changeCarModel",
      "outputs": [],
      "stateMutability": "nonpayable",
      "type": "function"
    },
    {
      "inputs": [
        {
          "internalType": "string",
          "name": "_newPlate",
          "type": "string"
        }
      ],
      "name": "changeCarPlate",
      "outputs": [],
      "stateMutability": "nonpayable",
      "type": "function"
    },
    {
      "inputs": [
        {
          "internalType": "string",
          "name": "_record",
          "type": "string"
        }
      ],
      "name": "changeInsuranceRecord",
      "outputs": [],
      "stateMutability": "nonpayable",
      "type": "function"
    },
    {
      "inputs": [
        {
          "internalType": "string",
          "name": "_record",
          "type": "string"
        }
      ],
      "name": "changeAccidentRecord",
      "outputs": [],
      "stateMutability": "nonpayable",
      "type": "function"
    },
    {
      "inputs": [
        {
          "internalType": "string",
          "name": "_record",
          "type": "string"
        }
      ],
      "name": "changeMaintenanceRecord",
      "outputs": [],
      "stateMutability": "nonpayable",
      "type": "function"
    },
    {
      "inputs": [
        {
          "internalType": "string",
          "name": "_vin",
          "type": "string"
        }
      ],
      "name": "changeVehicleIdentificationNumber",
      "outputs": [],
      "stateMutability": "nonpayable",
      "type": "function"
    },
    {
      "inputs": [],
      "name": "getCarModel",
      "outputs": [
        {
          "internalType": "string",
          "name": "",
          "type": "string"
        }
      ],
      "stateMutability": "view",
      "type": "function",
      "constant": true
    },
    {
      "inputs": [],
      "name": "getCarPlate",
      "outputs": [
        {
          "internalType": "string",
          "name": "",
          "type": "string"
        }
      ],
      "stateMutability": "view",
      "type": "function",
      "constant": true
    },
    {
      "inputs": [],
      "name": "getInsuranceRecord",
      "outputs": [
        {
          "internalType": "string",
          "name": "",
          "type": "string"
        }
      ],
      "stateMutability": "view",
      "type": "function",
      "constant": true
    },
    {
      "inputs": [],
      "name": "getAccidentRecord",
      "outputs": [
        {
          "internalType": "string",
          "name": "",
          "type": "string"
        }
      ],
      "stateMutability": "view",
      "type": "function",
      "constant": true
    },
    {
      "inputs": [],
      "name": "getMaintenanceRecord",
      "outputs": [
        {
          "internalType": "string",
          "name": "",
          "type": "string"
        }
      ],
      "stateMutability": "view",
      "type": "function",
      "constant": true
    },
    {
      "inputs": [],
      "name": "getVehicleIdentificationNumber",
      "outputs": [
        {
          "internalType": "string",
          "name": "",
          "type": "string"
        }
      ],
      "stateMutability": "view",
      "type": "function",
      "constant": true
    }
  ],
  "bytecode": "0x608060405234801562000010575f80fd5b5060405162001ae538038062001ae5833981810160405281019062000036919062000272565b335f806101000a81548173ffffffffffffffffffffffffffffffffffffffff021916908373ffffffffffffffffffffffffffffffffffffffff1602179055508560019081620000869190620005fb565b508460029081620000989190620005fb565b508360039081620000aa9190620005fb565b508260049081620000bc9190620005fb565b508160059081620000ce9190620005fb565b508060069081620000e09190620005fb565b50505050505050620006df565b5f604051905090565b5f80fd5b5f80fd5b5f80fd5b5f80fd5b5f601f19601f8301169050919050565b7f4e487b71000000000000000000000000000000000000000000000000000000005f52604160045260245ffd5b6200014e8262000106565b810181811067ffffffffffffffff8211171562000170576200016f62000116565b5b80604052505050565b5f62000184620000ed565b905062000192828262000143565b919050565b5f67ffffffffffffffff821115620001b457620001b362000116565b5b620001bf8262000106565b9050602081019050919050565b5f5b83811015620001eb578082015181840152602081019050620001ce565b5f8484015250505050565b5f6200020c620002068462000197565b62000179565b9050828152602081018484840111156200022b576200022a62000102565b5b62000238848285620001cc565b509392505050565b5f82601f830112620002575762000256620000fe565b5b815162000269848260208601620001f6565b91505092915050565b5f805f805f8060c087890312156200028f576200028e620000f6565b5b5f87015167ffffffffffffffff811115620002af57620002ae620000fa565b5b620002bd89828a0162000240565b965050602087015167ffffffffffffffff811115620002e157620002e0620000fa565b5b620002ef89828a0162000240565b955050604087015167ffffffffffffffff811115620003135762000312620000fa565b5b6200032189828a0162000240565b945050606087015167ffffffffffffffff811115620003455762000344620000fa565b5b6200035389828a0162000240565b935050608087015167ffffffffffffffff811115620003775762000376620000fa565b5b6200038589828a0162000240565b92505060a087015167ffffffffffffffff811115620003a957620003a8620000fa565b5b620003b789828a0162000240565b9150509295509295509295565b5f81519050919050565b7f4e487b71000000000000000000000000000000000000000000000000000000005f52602260045260245ffd5b5f60028204905060018216806200041357607f821691505b602082108103620004295762000428620003ce565b5b50919050565b5f819050815f5260205f209050919050565b5f6020601f8301049050919050565b5f82821b905092915050565b5f600883026200048d7fffffffffffffffffffffffffffffffffffffffffffffffffffffffffffffffff8262000450565b62000499868362000450565b95508019841693508086168417925050509392505050565b5f819050919050565b5f819050919050565b5f620004e3620004dd620004d784620004b1565b620004ba565b620004b1565b9050919050565b5f819050919050565b620004fe83620004c3565b620005166200050d82620004ea565b8484546200045c565b825550505050565b5f90565b6200052c6200051e565b62000539818484620004f3565b505050565b5b818110156200056057620005545f8262000522565b6001810190506200053f565b5050565b601f821115620005af5762000579816200042f565b620005848462000441565b8101602085101562000594578190505b620005ac620005a38562000441565b8301826200053e565b50505b505050565b5f82821c905092915050565b5f620005d15f1984600802620005b4565b1980831691505092915050565b5f620005eb8383620005c0565b9150826002028217905092915050565b6200060682620003c4565b67ffffffffffffffff81111562000622576200062162000116565b5b6200062e8254620003fb565b6200063b82828562000564565b5f60209050601f83116001811462000671575f84156200065c578287015190505b620006688582620005de565b865550620006d7565b601f19841662000681866200042f565b5f5b82811015620006aa5784890151825560018201915060208501945060208101905062000683565b86831015620006ca5784890151620006c6601f891682620005c0565b8355505b6001600288020188555050505b505050505050565b6113f880620006ed5f395ff3fe608060405234801561000f575f80fd5b506004361061011f575f3560e01c80638da5cb5b116100ab578063b6c82e481161006f578063b6c82e48146102bd578063c341f12e146102db578063d9709a03146102f9578063e0465ac214610315578063f1d90de4146103335761011f565b80638da5cb5b1461022b5780638fcdfc5d1461024957806392b6e5cf146102675780639c182b6c14610285578063a0600e26146102a15761011f565b8063412bc4f8116100f2578063412bc4f8146101995780634492a9fc146101b75780636cd4a8a4146101d557806378e7f0b1146101f357806379e6a7561461020f5761011f565b806328c8d5a4146101235780632c8c2ff3146101415780633714c74b1461015f5780633bd00db81461017b575b5f80fd5b61012b610351565b6040516101389190610e66565b60405180910390f35b6101496103e1565b6040516101569190610e66565b60405180910390f35b61017960048036038101906101749190610fc3565b610471565b005b610183610511565b6040516101909190610e66565b60405180910390f35b6101a161059d565b6040516101ae9190610e66565b60405180910390f35b6101bf610629565b6040516101cc9190610e66565b60405180910390f35b6101dd6106b5565b6040516101ea9190610e66565b60405180910390f35b61020d60048036038101906102089190610fc3565b610741565b005b61022960048036038101906102249190610fc3565b6107e1565b005b610233610881565b6040516102409190611049565b60405180910390f35b6102516108a4565b60405161025e9190610e66565b60405180910390f35b61026f610934565b60405161027c9190610e66565b60405180910390f35b61029f600480360381019061029a9190610fc3565b6109c0565b005b6102bb60048036038101906102b69190610fc3565b610a60565b005b6102c5610b00565b6040516102d29190610e66565b60405180910390f35b6102e3610b8c565b6040516102f09190610e66565b60405180910390f35b610313600480360381019061030e9190610fc3565b610c1c565b005b61031d610cbc565b60405161032a9190610e66565b60405180910390f35b61033b610d4c565b6040516103489190610e66565b60405180910390f35b6060600280546103609061108f565b80601f016020809104026020016040519081016040528092919081815260200182805461038c9061108f565b80156103d75780601f106103ae576101008083540402835291602001916103d7565b820191905f5260205f20905b8154815290600101906020018083116103ba57829003601f168201915b5050505050905090565b6060600480546103f09061108f565b80601f016020809104026020016040519081016040528092919081815260200182805461041c9061108f565b80156104675780601f1061043e57610100808354040283529160200191610467565b820191905f5260205f20905b81548152906001019060200180831161044a57829003601f168201915b5050505050905090565b5f8054906101000a900473ffffffffffffffffffffffffffffffffffffffff1673ffffffffffffffffffffffffffffffffffffffff163373ffffffffffffffffffffffffffffffffffffffff16146104fe576040517f08c379a00000000000000000000000000000000000000000000000000000000081526004016104f59061112f565b60405180910390fd5b806001908161050d91906112f3565b5050565b6006805461051e9061108f565b80601f016020809104026020016040519081016040528092919081815260200182805461054a9061108f565b80156105955780601f1061056c57610100808354040283529160200191610595565b820191905f5260205f20905b81548152906001019060200180831161057857829003601f168201915b505050505081565b600280546105aa9061108f565b80601f01602080910402602001604051908101604052809291908181526020018280546105d69061108f565b80156106215780601f106105f857610100808354040283529160200191610621565b820191905f5260205f20905b81548152906001019060200180831161060457829003601f168201915b505050505081565b600480546106369061108f565b80601f01602080910402602001604051908101604052809291908181526020018280546106629061108f565b80156106ad5780601f10610684576101008083540402835291602001916106ad565b820191905f5260205f20905b81548152906001019060200180831161069057829003601f168201915b505050505081565b600180546106c29061108f565b80601f01602080910402602001604051908101604052809291908181526020018280546106ee9061108f565b80156107395780601f1061071057610100808354040283529160200191610739565b820191905f5260205f20905b81548152906001019060200180831161071c57829003601f168201915b505050505081565b5f8054906101000a900473ffffffffffffffffffffffffffffffffffffffff1673ffffffffffffffffffffffffffffffffffffffff163373ffffffffffffffffffffffffffffffffffffffff16146107ce576040517f08c379a00000000000000000000000000000000000000000000000000000000081526004016107c59061112f565b60405180910390fd5b80600690816107dd91906112f3565b5050565b5f8054906101000a900473ffffffffffffffffffffffffffffffffffffffff1673ffffffffffffffffffffffffffffffffffffffff163373ffffffffffffffffffffffffffffffffffffffff161461086e576040517f08c379a00000000000000000000000000000000000000000000000000000000081526004016108659061112f565b60405180910390fd5b806004908161087d91906112f3565b5050565b5f8054906101000a900473ffffffffffffffffffffffffffffffffffffffff1681565b6060600580546108b39061108f565b80601f01602080910402602001604051908101604052809291908181526020018280546108df9061108f565b801561092a5780601f106109015761010080835404028352916020019161092a565b820191905f5260205f20905b81548152906001019060200180831161090d57829003601f168201915b5050505050905090565b600580546109419061108f565b80601f016020809104026020016040519081016040528092919081815260200182805461096d9061108f565b80156109b85780601f1061098f576101008083540402835291602001916109b8565b820191905f5260205f20905b81548152906001019060200180831161099b57829003601f168201915b505050505081565b5f8054906101000a900473ffffffffffffffffffffffffffffffffffffffff1673ffffffffffffffffffffffffffffffffffffffff163373ffffffffffffffffffffffffffffffffffffffff1614610a4d576040517f08c379a0000000000000000000000000000000000000000000000000000000008152600401610a449061112f565b60405180910390fd5b8060039081610a5c91906112f3565b5050565b5f8054906101000a900473ffffffffffffffffffffffffffffffffffffffff1673ffffffffffffffffffffffffffffffffffffffff163373ffffffffffffffffffffffffffffffffffffffff1614610aed576040517f08c379a0000000000000000000000000000000000000000000000000000000008152600401610ae49061112f565b60405180910390fd5b8060029081610afc91906112f3565b5050565b60038054610b0d9061108f565b80601f0160208091040260200160405190810160405280929190818152602001828054610b399061108f565b8015610b845780601f10610b5b57610100808354040283529160200191610b84565b820191905f5260205f20905b815481529060010190602001808311610b6757829003601f168201915b505050505081565b606060068054610b9b9061108f565b80601f0160208091040260200160405190810160405280929190818152602001828054610bc79061108f565b8015610c125780601f10610be957610100808354040283529160200191610c12565b820191905f5260205f20905b815481529060010190602001808311610bf557829003601f168201915b5050505050905090565b5f8054906101000a900473ffffffffffffffffffffffffffffffffffffffff1673ffffffffffffffffffffffffffffffffffffffff163373ffffffffffffffffffffffffffffffffffffffff1614610ca9576040517f08c379a0000000000000000000000000000000000000000000000000000000008152600401610ca09061112f565b60405180910390fd5b8060059081610cb891906112f3565b5050565b606060018054610ccb9061108f565b80601f0160208091040260200160405190810160405280929190818152602001828054610cf79061108f565b8015610d425780601f10610d1957610100808354040283529160200191610d42565b820191905f5260205f20905b815481529060010190602001808311610d2557829003601f168201915b5050505050905090565b606060038054610d5b9061108f565b80601f0160208091040260200160405190810160405280929190818152602001828054610d879061108f565b8015610dd25780601f10610da957610100808354040283529160200191610dd2565b820191905f5260205f20905b815481529060010190602001808311610db557829003601f168201915b5050505050905090565b5f81519050919050565b5f82825260208201905092915050565b5f5b83811015610e13578082015181840152602081019050610df8565b5f8484015250505050565b5f601f19601f8301169050919050565b5f610e3882610ddc565b610e428185610de6565b9350610e52818560208601610df6565b610e5b81610e1e565b840191505092915050565b5f6020820190508181035f830152610e7e8184610e2e565b905092915050565b5f604051905090565b5f80fd5b5f80fd5b5f80fd5b5f80fd5b7f4e487b71000000000000000000000000000000000000000000000000000000005f52604160045260245ffd5b610ed582610e1e565b810181811067ffffffffffffffff82111715610ef457610ef3610e9f565b5b80604052505050565b5f610f06610e86565b9050610f128282610ecc565b919050565b5f67ffffffffffffffff821115610f3157610f30610e9f565b5b610f3a82610e1e565b9050602081019050919050565b828183375f83830152505050565b5f610f67610f6284610f17565b610efd565b905082815260208101848484011115610f8357610f82610e9b565b5b610f8e848285610f47565b509392505050565b5f82601f830112610faa57610fa9610e97565b5b8135610fba848260208601610f55565b91505092915050565b5f60208284031215610fd857610fd7610e8f565b5b5f82013567ffffffffffffffff811115610ff557610ff4610e93565b5b61100184828501610f96565b91505092915050565b5f73ffffffffffffffffffffffffffffffffffffffff82169050919050565b5f6110338261100a565b9050919050565b61104381611029565b82525050565b5f60208201905061105c5f83018461103a565b92915050565b7f4e487b71000000000000000000000000000000000000000000000000000000005f52602260045260245ffd5b5f60028204905060018216806110a657607f821691505b6020821081036110b9576110b8611062565b5b50919050565b7f4f6e6c7920746865206f776e65722063616e20706572666f726d2074686973205f8201527f6f7065726174696f6e0000000000000000000000000000000000000000000000602082015250565b5f611119602983610de6565b9150611124826110bf565b604082019050919050565b5f6020820190508181035f8301526111468161110d565b9050919050565b5f819050815f5260205f209050919050565b5f6020601f8301049050919050565b5f82821b905092915050565b5f600883026111a97fffffffffffffffffffffffffffffffffffffffffffffffffffffffffffffffff8261116e565b6111b3868361116e565b95508019841693508086168417925050509392505050565b5f819050919050565b5f819050919050565b5f6111f76111f26111ed846111cb565b6111d4565b6111cb565b9050919050565b5f819050919050565b611210836111dd565b61122461121c826111fe565b84845461117a565b825550505050565b5f90565b61123861122c565b611243818484611207565b505050565b5b818110156112665761125b5f82611230565b600181019050611249565b5050565b601f8211156112ab5761127c8161114d565b6112858461115f565b81016020851015611294578190505b6112a86112a08561115f565b830182611248565b50505b505050565b5f82821c905092915050565b5f6112cb5f19846008026112b0565b1980831691505092915050565b5f6112e383836112bc565b9150826002028217905092915050565b6112fc82610ddc565b67ffffffffffffffff81111561131557611314610e9f565b5b61131f825461108f565b61132a82828561126a565b5f60209050601f83116001811461135b575f8415611349578287015190505b61135385826112d8565b8655506113ba565b601f1984166113698661114d565b5f5b828110156113905784890151825560018201915060208501945060208101905061136b565b868310156113ad57848901516113a9601f8916826112bc565b8355505b6001600288020188555050505b50505050505056fea2646970667358221220e09a7cd193ff6c07cc7d1f5ed9e6d952fa63c19ecc01c486588c492d5d26f85964736f6c63430008150033",
  "immutableReferences": {},
  "source": "// SPDX-License-Identifier: MIT\r\npragma solidity ^0.8.0;\r\n\r\ncontract CarContract {\r\n    address public owner; //  \r\n    string public carModel; // \r\n    string public carPlate; // \r\n    string public insuranceRecord; // \r\n    string public accidentRecord; // \r\n    string public maintenanceRecord; // \r\n    string public vehicleIdentificationNumber; // \r\n\r\n    modifier onlyOwner() {\r\n        require(msg.sender == owner, \"Only the owner can perform this operation\");\r\n        _;\r\n    }\r\n\r\n    //   //\r\n    constructor(\r\n        string memory _initialModel,\r\n        string memory _initialPlate,\r\n        string memory _initialInsuranceRecord,\r\n        string memory _initialAccidentRecord,\r\n        string memory _initialMaintenanceRecord,        \r\n        string memory _initialVIN\r\n    ) {\r\n        owner = msg.sender; \r\n        carModel = _initialModel;\r\n        carPlate = _initialPlate;\r\n        insuranceRecord = _initialInsuranceRecord;\r\n        accidentRecord = _initialAccidentRecord;\r\n        maintenanceRecord = _initialMaintenanceRecord;\r\n        vehicleIdentificationNumber = _initialVIN;\r\n    }\r\n\r\n     //   //\r\n    function changeCarModel(string memory _newModel) public onlyOwner { \r\n        carModel = _newModel;\r\n    }\r\n\r\n    function changeCarPlate(string memory _newPlate) public onlyOwner {\r\n        carPlate = _newPlate;\r\n    }\r\n\r\n    function changeInsuranceRecord(string memory _record) public onlyOwner {\r\n        insuranceRecord = _record;\r\n    }\r\n\r\n    function changeAccidentRecord(string memory _record) public onlyOwner {\r\n        accidentRecord = _record;\r\n    }\r\n\r\n    function changeMaintenanceRecord(string memory _record) public onlyOwner {\r\n        maintenanceRecord = _record;\r\n    }\r\n\r\n    function changeVehicleIdentificationNumber(string memory _vin) public onlyOwner {\r\n        vehicleIdentificationNumber = _vin;\r\n    }\r\n\r\n    //  //\r\n    function getCarModel() public view returns (string memory) {\r\n        return carModel;\r\n    }\r\n\r\n    function getCarPlate() public view returns (string memory) {\r\n        return carPlate;\r\n    }\r\n\r\n    function getInsuranceRecord() public view returns (string memory) {\r\n        return insuranceRecord;\r\n    }\r\n\r\n    function getAccidentRecord() public view returns (string memory) {\r\n        return accidentRecord;\r\n    }\r\n\r\n    function getMaintenanceRecord() public view returns (string memory) {\r\n        return maintenanceRecord;\r\n    }\r\n\r\n    function getVehicleIdentificationNumber() public view returns (string memory) {\r\n        return vehicleIdentificationNumber;\r\n    }\r\n}\r\n",
  "sourcePath": "C:\\Users\\ezrea\\Desktop\\car\\contracts\\car.sol",
  "compiler": {
    "name": "solc",
    "version": "0.8.21+commit.d9974bed.Emscripten.clang"
  },
  "schemaVersion": "3.4.16",
  "updatedAt": "2024-01-07T17:52:20.417Z",
  "networkType": "ethereum",
  "devdoc": {
    "kind": "dev",
    "methods": {},
    "version": 1
  },
  "userdoc": {
    "kind": "user",
    "methods": {},
    "version": 1
  }
}